{
  "contractName": "Vault",
  "abi": [
    {
      "inputs": [
        {
          "internalType": "bytes32",
          "name": "_password",
          "type": "bytes32"
        }
      ],
      "payable": false,
      "stateMutability": "nonpayable",
      "type": "constructor"
    },
    {
      "constant": true,
      "inputs": [],
      "name": "count",
      "outputs": [
        {
          "internalType": "uint256",
          "name": "",
          "type": "uint256"
        }
      ],
      "payable": false,
      "stateMutability": "view",
      "type": "function"
    },
    {
      "constant": true,
      "inputs": [
        {
          "internalType": "uint256",
          "name": "",
          "type": "uint256"
        }
      ],
      "name": "data",
      "outputs": [
        {
          "internalType": "bytes32",
          "name": "",
          "type": "bytes32"
        }
      ],
      "payable": false,
      "stateMutability": "view",
      "type": "function"
    },
    {
      "constant": true,
      "inputs": [],
      "name": "isTrue",
      "outputs": [
        {
          "internalType": "bool",
          "name": "",
          "type": "bool"
        }
      ],
      "payable": false,
      "stateMutability": "view",
      "type": "function"
    },
    {
      "constant": true,
      "inputs": [],
      "name": "owner",
      "outputs": [
        {
          "internalType": "address",
          "name": "",
          "type": "address"
        }
      ],
      "payable": false,
      "stateMutability": "view",
      "type": "function"
    },
    {
      "constant": true,
      "inputs": [],
      "name": "someConst",
      "outputs": [
        {
          "internalType": "uint256",
          "name": "",
          "type": "uint256"
        }
      ],
      "payable": false,
      "stateMutability": "view",
      "type": "function"
    },
    {
      "constant": true,
      "inputs": [],
      "name": "u16",
      "outputs": [
        {
          "internalType": "uint16",
          "name": "",
          "type": "uint16"
        }
      ],
      "payable": false,
      "stateMutability": "view",
      "type": "function"
    },
    {
      "constant": false,
      "inputs": [
        {
          "internalType": "bytes32",
          "name": "_password",
          "type": "bytes32"
        }
      ],
      "name": "addUser",
      "outputs": [],
      "payable": false,
      "stateMutability": "nonpayable",
      "type": "function"
    },
    {
      "constant": true,
      "inputs": [
        {
          "internalType": "uint256",
          "name": "slot",
          "type": "uint256"
        },
        {
          "internalType": "uint256",
          "name": "index",
          "type": "uint256"
        },
        {
          "internalType": "uint256",
          "name": "elementSize",
          "type": "uint256"
        }
      ],
      "name": "getArrayLocation",
      "outputs": [
        {
          "internalType": "uint256",
          "name": "",
          "type": "uint256"
        }
      ],
      "payable": false,
      "stateMutability": "pure",
      "type": "function"
    },
    {
      "constant": true,
      "inputs": [
        {
          "internalType": "uint256",
          "name": "slot",
          "type": "uint256"
        },
        {
          "internalType": "uint256",
          "name": "key",
          "type": "uint256"
        }
      ],
      "name": "getMapLocation",
      "outputs": [
        {
          "internalType": "uint256",
          "name": "",
          "type": "uint256"
        }
      ],
      "payable": false,
      "stateMutability": "pure",
      "type": "function"
    }
  ],
  "bytecode": "0x6080604052607b60005533600160006101000a81548173ffffffffffffffffffffffffffffffffffffffff021916908373ffffffffffffffffffffffffffffffffffffffff16021790555060018060146101000a81548160ff021916908315150217905550601f600160156101000a81548161ffff021916908361ffff16021790555034801561008e57600080fd5b50604051610523380380610523833981810160405260208110156100b157600080fd5b8101908080519060200190929190505050806002819055505061044a806100d96000396000f3fe608060405234801561001057600080fd5b50600436106100925760003560e01c8063881374d711610066578063881374d71461011b5780638da5cb5b146101675780638faf850d146101b1578063992ddc6f146101df578063f0ba84401461023557610092565b806274530a1461009757806306661abd146100b95780630a6b4e06146100d757806359d168b6146100fd575b600080fd5b61009f610277565b604051808215151515815260200191505060405180910390f35b6100c161028a565b6040518082815260200191505060405180910390f35b6100df610290565b604051808261ffff1661ffff16815260200191505060405180910390f35b6101056102a4565b6040518082815260200191505060405180910390f35b6101516004803603604081101561013157600080fd5b8101908080359060200190929190803590602001909291905050506102a9565b6040518082815260200191505060405180910390f35b61016f6102e5565b604051808273ffffffffffffffffffffffffffffffffffffffff1673ffffffffffffffffffffffffffffffffffffffff16815260200191505060405180910390f35b6101dd600480360360208110156101c757600080fd5b810190808035906020019092919050505061030b565b005b61021f600480360360608110156101f557600080fd5b810190808035906020019092919080359060200190929190803590602001909291905050506103a7565b6040518082815260200191505060405180910390f35b6102616004803603602081101561024b57600080fd5b81019080803590602001909291905050506103e0565b6040518082815260200191505060405180910390f35b600160149054906101000a900460ff1681565b60005481565b600160159054906101000a900461ffff1681565b607b81565b6000818360405160200180838152602001828152602001925050506040516020818303038152906040528051906020012060001c905092915050565b600160009054906101000a900473ffffffffffffffffffffffffffffffffffffffff1681565b6103136103f8565b6040518060400160405280600680549050815260200183815250905060068190806001815401808255809150509060018203906000526020600020906002020160009091929091909150600082015181600001556020820151816001015550505080600760008360000151815260200190815260200160002060008201518160000155602082015181600101559050505050565b600081830284604051602001808281526020019150506040516020818303038152906040528051906020012060001c0190509392505050565b600381600381106103ed57fe5b016000915090505481565b60405180604001604052806000815260200160008019168152509056fea265627a7a7231582003efc335153f3d7782ada39c395884bdd61bd0c392f441eba6d94030dcbf3ebb64736f6c63430005100032",
  "source": "// SPDX-License-Identifier: MIT\npragma solidity 0.5.16;\n\n/*\nNote: cannot use web3 on JVM, so use the contract deployed on ropsten\nNote: browser Web3 is old so use Web3 from truffle console\n\nContract deployed on Ropsten\n0x3505a02BCDFbb225988161a95528bfDb279faD6b\n*/\n\n/*\n# Storage\n- 2 ** 256 slots\n- 32 bytes for each slot\n- data is stored sequentially in the order of declaration\n- storage is optimized to save space. If neighboring variables fit in a single\n  32 bytes, then they are packed into the same slot, starting from the right\n*/\n\ncontract Vault {\n    // slot 0\n    uint public count = 123;\n    // slot 1\n    address public owner = msg.sender;\n    bool public isTrue = true;\n    uint16 public u16 = 31;\n    // slot 2\n    bytes32 private password;\n\n    // constants do not use storage\n    uint public constant someConst = 123;\n\n    // slot 3, 4, 5 (one for each array element)\n    bytes32[3] public data;\n\n    struct User {\n        uint id;\n        bytes32 password;\n    }\n\n    // slot 6 - length of array\n    // starting from slot hash(6) - array elements\n    // slot where array element is stored = keccak256(slot)) + (index * elementSize)\n    // where slot = 6 and elementSize = 2 (1 (uint) +  1 (bytes32))\n    User[] private users;\n\n    // slot 7 - empty\n    // entries are stored at hash(key, slot)\n    // where slot = 7, key = map key\n    mapping(uint => User) private idToUser;\n\n    constructor(bytes32 _password) public {\n        password = _password;\n    }\n\n    function addUser(bytes32 _password) public {\n        User memory user = User({\n            id: users.length,\n            password: _password\n        });\n\n        users.push(user);\n        idToUser[user.id] = user;\n    }\n\n    function getArrayLocation(uint slot, uint index, uint elementSize) public pure returns (uint) {\n        return uint(keccak256(abi.encodePacked(slot))) + (index * elementSize);\n    }\n\n    function getMapLocation(uint slot, uint key) public pure returns (uint) {\n        return uint(keccak256(abi.encodePacked(key, slot)));\n    }\n}\n\n/*\nslot 0 - count\nweb3.eth.getStorageAt(\"0x3505a02BCDFbb225988161a95528bfDb279faD6b\", 0, console.log)\nslot 1 - u16, isTrue, owner\nweb3.eth.getStorageAt(\"0x3505a02BCDFbb225988161a95528bfDb279faD6b\", 1, console.log)\nslot 2 - password\nweb3.eth.getStorageAt(\"0x3505a02BCDFbb225988161a95528bfDb279faD6b\", 2, console.log)\n\nslot 6 - array length\ngetArrayLocation(6, 0, 2)\nweb3.utils.numberToHex(\"111414077815863400510004064629973595961579173665589224203503662149373724986687\")\nNote: We can also use web3 to get data location\nweb3.utils.soliditySha3({ type: \"uint\", value: 6 })\n1st user\nweb3.eth.getStorageAt(\"0x3505a02BCDFbb225988161a95528bfDb279faD6b\", \"0xf652222313e28459528d920b65115c16c04f3efc82aaedc97be59f3f377c0d3f\", console.log)\nweb3.eth.getStorageAt(\"0x3505a02BCDFbb225988161a95528bfDb279faD6b\", \"0xf652222313e28459528d920b65115c16c04f3efc82aaedc97be59f3f377c0d40\", console.log)\nNote: use web3.toAscii to convert bytes32 to alphabet\n2nd user\nweb3.eth.getStorageAt(\"0x3505a02BCDFbb225988161a95528bfDb279faD6b\", \"0xf652222313e28459528d920b65115c16c04f3efc82aaedc97be59f3f377c0d41\", console.log)\nweb3.eth.getStorageAt(\"0x3505a02BCDFbb225988161a95528bfDb279faD6b\", \"0xf652222313e28459528d920b65115c16c04f3efc82aaedc97be59f3f377c0d42\", console.log)\n\nslot 7 - empty\ngetMapLocation(7, 1)\nweb3.utils.numberToHex(\"81222191986226809103279119994707868322855741819905904417953092666699096963112\")\nNote: We can also use web3 to get data location\nweb3.utils.soliditySha3({ type: \"uint\", value: 1 }, {type: \"uint\", value: 7})\nuser 1\nweb3.eth.getStorageAt(\"0x3505a02BCDFbb225988161a95528bfDb279faD6b\", \"0xb39221ace053465ec3453ce2b36430bd138b997ecea25c1043da0c366812b828\", console.log)\nweb3.eth.getStorageAt(\"0x3505a02BCDFbb225988161a95528bfDb279faD6b\", \"0xb39221ace053465ec3453ce2b36430bd138b997ecea25c1043da0c366812b829\", console.log)\n*/",
  "sourcePath": "/Users/Hanzel.Anchia.Mena/hidden-values/contracts/Vault.sol",
  "compiler": {
    "name": "solc",
    "version": "0.5.16+commit.9c3226ce.Emscripten.clang"
  },
  "schemaVersion": "3.4.3",
  "updatedAt": "2021-08-16T02:45:27.714Z",
  "networkType": "ethereum",
  "devdoc": {
    "methods": {}
  },
  "userdoc": {
    "methods": {}
  }
}